{
    "_format": "hh-sol-artifact-1",
    "contractName": "Coin",
    "sourceName": "contracts/Coin.sol",
    "abi": [
        {
            "inputs": [
                {
                    "internalType": "uint256",
                    "name": "Coins",
                    "type": "uint256"
                }
            ],
            "stateMutability": "nonpayable",
            "type": "constructor"
        },
        {
            "inputs": [
                {
                    "internalType": "address",
                    "name": "w1",
                    "type": "address"
                },
                {
                    "internalType": "uint256",
                    "name": "stake",
                    "type": "uint256"
                }
            ],
            "name": "gameEnd2players",
            "outputs": [],
            "stateMutability": "nonpayable",
            "type": "function"
        },
        {
            "inputs": [
                {
                    "internalType": "address",
                    "name": "w1",
                    "type": "address"
                },
                {
                    "internalType": "address",
                    "name": "w2",
                    "type": "address"
                },
                {
                    "internalType": "uint256",
                    "name": "stake",
                    "type": "uint256"
                }
            ],
            "name": "gameEnd4players",
            "outputs": [],
            "stateMutability": "nonpayable",
            "type": "function"
        },
        {
            "inputs": [
                {
                    "internalType": "address",
                    "name": "_account",
                    "type": "address"
                }
            ],
            "name": "getCoins",
            "outputs": [
                {
                    "internalType": "uint256",
                    "name": "",
                    "type": "uint256"
                }
            ],
            "stateMutability": "view",
            "type": "function"
        },
        {
            "inputs": [],
            "name": "name",
            "outputs": [
                {
                    "internalType": "string",
                    "name": "",
                    "type": "string"
                }
            ],
            "stateMutability": "view",
            "type": "function"
        },
        {
            "inputs": [
                {
                    "internalType": "address",
                    "name": "_account",
                    "type": "address"
                }
            ],
            "name": "newAccount",
            "outputs": [],
            "stateMutability": "nonpayable",
            "type": "function"
        },
        {
            "inputs": [
                {
                    "internalType": "address",
                    "name": "_p1",
                    "type": "address"
                },
                {
                    "internalType": "address",
                    "name": "_p2",
                    "type": "address"
                },
                {
                    "internalType": "uint256",
                    "name": "stakeAmount",
                    "type": "uint256"
                }
            ],
            "name": "no2Players",
            "outputs": [],
            "stateMutability": "nonpayable",
            "type": "function"
        },
        {
            "inputs": [
                {
                    "internalType": "address",
                    "name": "_p1",
                    "type": "address"
                },
                {
                    "internalType": "address",
                    "name": "_p2",
                    "type": "address"
                },
                {
                    "internalType": "address",
                    "name": "_p3",
                    "type": "address"
                },
                {
                    "internalType": "address",
                    "name": "_p4",
                    "type": "address"
                },
                {
                    "internalType": "uint256",
                    "name": "stakeAmount",
                    "type": "uint256"
                }
            ],
            "name": "no4Players",
            "outputs": [],
            "stateMutability": "nonpayable",
            "type": "function"
        },
        {
            "inputs": [
                {
                    "internalType": "address",
                    "name": "_from",
                    "type": "address"
                },
                {
                    "internalType": "uint256",
                    "name": "stakeAmount",
                    "type": "uint256"
                }
            ],
            "name": "stakeCoins",
            "outputs": [
                {
                    "internalType": "uint256",
                    "name": "",
                    "type": "uint256"
                }
            ],
            "stateMutability": "nonpayable",
            "type": "function"
        },
        {
            "inputs": [],
            "name": "symbol",
            "outputs": [
                {
                    "internalType": "string",
                    "name": "",
                    "type": "string"
                }
            ],
            "stateMutability": "view",
            "type": "function"
        },
        {
            "inputs": [
                {
                    "internalType": "address",
                    "name": "_to",
                    "type": "address"
                },
                {
                    "internalType": "uint256",
                    "name": "value",
                    "type": "uint256"
                }
            ],
            "name": "transfer",
            "outputs": [
                {
                    "internalType": "bool",
                    "name": "",
                    "type": "bool"
                }
            ],
            "stateMutability": "nonpayable",
            "type": "function"
        },
        {
            "inputs": [
                {
                    "internalType": "address",
                    "name": "_from",
                    "type": "address"
                },
                {
                    "internalType": "address",
                    "name": "_to",
                    "type": "address"
                },
                {
                    "internalType": "uint256",
                    "name": "value",
                    "type": "uint256"
                }
            ],
            "name": "transferFrom",
            "outputs": [
                {
                    "internalType": "bool",
                    "name": "",
                    "type": "bool"
                }
            ],
            "stateMutability": "nonpayable",
            "type": "function"
        }
    ],
    "bytecode": "0x60c060405260046080819052634c55444f60e01b60a0908152620000279160009190620000aa565b5060408051808201909152600280825261131160f21b60209092019182526200005391600191620000aa565b5066038d7ea4c680006004553480156200006c57600080fd5b5060405162000ec238038062000ec28339810160408190526200008f9162000150565b600281905533600090815260056020526040902055620001a6565b828054620000b89062000169565b90600052602060002090601f016020900481019282620000dc576000855562000127565b82601f10620000f757805160ff191683800117855562000127565b8280016001018555821562000127579182015b82811115620001275782518255916020019190600101906200010a565b506200013592915062000139565b5090565b5b808211156200013557600081556001016200013a565b60006020828403121562000162578081fd5b5051919050565b600181811c908216806200017e57607f821691505b60208210811415620001a057634e487b7160e01b600052602260045260246000fd5b50919050565b610d0c80620001b66000396000f3fe608060405234801561001057600080fd5b50600436106100a95760003560e01c8063a9059cbb11610071578063a9059cbb1461011f578063b091390214610132578063b752c76314610153578063bb3bcbf41461017c578063bf23ef741461018f578063d2c148fb146101a257600080fd5b806303152429146100ae57806306fdde03146100c357806323b872dd146100e157806371c8edbb1461010457806395d89b4114610117575b600080fd5b6100c16100bc366004610b23565b6101b5565b005b6100cb610267565b6040516100d89190610c03565b60405180910390f35b6100f46100ef366004610b9f565b6102f5565b60405190151581526020016100d8565b6100c1610112366004610bda565b6103c1565b6100cb610574565b6100f461012d366004610bda565b610581565b610145610140366004610bda565b61063a565b6040519081526020016100d8565b610145610161366004610b23565b6001600160a01b031660009081526005602052604090205490565b6100c161018a366004610b9f565b610710565b6100c161019d366004610b44565b6109f7565b6100c16101b0366004610b9f565b610ab2565b606460025410156102005760405162461bcd60e51b815260206004820152601060248201526f6e6f7420656e6f75676820636f696e7360801b60448201526064015b60405180910390fd5b6001600160a01b038116600090815260056020526040902054610264576064600260008282546102309190610c6e565b90915550506001600160a01b038116600090815260056020526040812080546064929061025e908490610c56565b90915550505b50565b6000805461027490610c85565b80601f01602080910402602001604051908101604052809291908181526020018280546102a090610c85565b80156102ed5780601f106102c2576101008083540402835291602001916102ed565b820191906000526020600020905b8154815290600101906020018083116102d057829003601f168201915b505050505081565b6001600160a01b03831660009081526005602052604081205482111561035d5760405162461bcd60e51b815260206004820152601d60248201527f6e6f7420656e6f75676820746f6b656e7320746f207472616e7366657200000060448201526064016101f7565b6001600160a01b03841660009081526005602052604081208054849290610385908490610c6e565b90915550506001600160a01b038316600090815260056020526040812080548492906103b2908490610c56565b90915550600195945050505050565b8060321415610418576001600160a01b03821660009081526005602052604081208054605a92906103f3908490610c56565b92505081905550600a6002600082825461040d9190610c56565b909155506105709050565b806064141561044a576001600160a01b0382166000908152600560205260408120805460be92906103f3908490610c56565b806101f41415610498576001600160a01b03821660009081526005602052604081208054610384929061047e908490610c56565b9250508190555060646002600082825461040d9190610c56565b806103e814156104cc576001600160a01b0382166000908152600560205260408120805461076c929061047e908490610c56565b80611388141561051b576001600160a01b038216600090815260056020526040812080546123289290610500908490610c56565b925050819055506103e86002600082825461040d9190610c56565b806127101415610570576001600160a01b03821660009081526005602052604081208054614a38929061054f908490610c56565b925050819055506103e86002600082825461056a9190610c56565b90915550505b5050565b6001805461027490610c85565b336000908152600560205260408120548211156105e05760405162461bcd60e51b815260206004820152601d60248201527f6e6f7420656e6f75676820746f6b656e7320746f207472616e7366657200000060448201526064016101f7565b33600090815260056020526040812080548492906105ff908490610c6e565b90915550506001600160a01b0383166000908152600560205260408120805484929061062c908490610c56565b909155506001949350505050565b6001600160a01b0382166000908152600560205260408120548211156106ad5760405162461bcd60e51b815260206004820152602260248201527f6e6f7420656e6f75676820636f696e7320746f207374617274207468652067616044820152616d6560f01b60648201526084016101f7565b6001600160a01b038316600090815260056020526040812080548492906106d5908490610c6e565b9250508190555081600360008282546106ee9190610c56565b909155505050506001600160a01b031660009081526005602052604090205490565b8060321415610795576001600160a01b03831660009081526005602052604081208054608c9290610742908490610c56565b90915550506001600160a01b0382166000908152600560205260408120805460329290610770908490610c56565b92505081905550600a6002600082825461078a9190610c56565b909155506109f29050565b80606414156107f6576001600160a01b0383166000908152600560205260408120805461012292906107c8908490610c56565b90915550506001600160a01b0382166000908152600560205260408120805460649290610770908490610c56565b806101f41415610872576001600160a01b0383166000908152600560205260408120805461015e929061082a908490610c56565b90915550506001600160a01b0382166000908152600560205260408120805460649290610858908490610c56565b9250508190555060326002600082825461078a9190610c56565b806103e814156108f0576001600160a01b038316600090815260056020526040812080546109c492906108a6908490610c56565b90915550506001600160a01b038216600090815260056020526040812080546103e892906108d5908490610c56565b925050819055506101f46002600082825461078a9190610c56565b80611388141561096e576001600160a01b038316600090815260056020526040812080546136b09290610924908490610c56565b90915550506001600160a01b038216600090815260056020526040812080546113889290610953908490610c56565b925050819055506103e86002600082825461078a9190610c56565b8061271014156109f2576001600160a01b038316600090815260056020526040812080546161a892906109a2908490610c56565b90915550506001600160a01b0382166000908152600560205260408120805461271092906109d1908490610c56565b92505081905550611388600260008282546109ec9190610c56565b90915550505b505050565b6001600160a01b03851660009081526005602052604081208054839290610a1f908490610c56565b90915550506001600160a01b03841660009081526005602052604081208054839290610a4c908490610c56565b90915550506001600160a01b03831660009081526005602052604081208054839290610a79908490610c56565b90915550506001600160a01b03821660009081526005602052604081208054839290610aa6908490610c56565b90915550505050505050565b6001600160a01b03831660009081526005602052604081208054839290610ada908490610c56565b90915550506001600160a01b038216600090815260056020526040812080548392906109ec908490610c56565b80356001600160a01b0381168114610b1e57600080fd5b919050565b600060208284031215610b34578081fd5b610b3d82610b07565b9392505050565b600080600080600060a08688031215610b5b578081fd5b610b6486610b07565b9450610b7260208701610b07565b9350610b8060408701610b07565b9250610b8e60608701610b07565b949793965091946080013592915050565b600080600060608486031215610bb3578283fd5b610bbc84610b07565b9250610bca60208501610b07565b9150604084013590509250925092565b60008060408385031215610bec578182fd5b610bf583610b07565b946020939093013593505050565b6000602080835283518082850152825b81811015610c2f57858101830151858201604001528201610c13565b81811115610c405783604083870101525b50601f01601f1916929092016040019392505050565b60008219821115610c6957610c69610cc0565b500190565b600082821015610c8057610c80610cc0565b500390565b600181811c90821680610c9957607f821691505b60208210811415610cba57634e487b7160e01b600052602260045260246000fd5b50919050565b634e487b7160e01b600052601160045260246000fdfea2646970667358221220e9de1f128ca49654c2488579e9b792ed6a033dbe1b05b57898d8df98e4c5c4dc64736f6c63430008040033",
    "linkReferences": {},
    "deployedLinkReferences": {}
}