{
	"_format": "hh-sol-artifact-1",
	"contractName": "Coin",
	"sourceName": "contracts/Coin.sol",
	"abi": [
		{
			"inputs": [],
			"stateMutability": "nonpayable",
			"type": "constructor"
		},
		{
			"inputs": [
				{
					"internalType": "address",
					"name": "_to",
					"type": "address"
				},
				{
					"internalType": "uint256",
					"name": "value",
					"type": "uint256"
				}
			],
			"name": "buyCoins",
			"outputs": [],
			"stateMutability": "nonpayable",
			"type": "function"
		},
		{
			"inputs": [
				{
					"internalType": "address",
					"name": "w1",
					"type": "address"
				},
				{
					"internalType": "uint256",
					"name": "stake",
					"type": "uint256"
				}
			],
			"name": "gameEnd2players",
			"outputs": [],
			"stateMutability": "nonpayable",
			"type": "function"
		},
		{
			"inputs": [
				{
					"internalType": "address",
					"name": "w1",
					"type": "address"
				},
				{
					"internalType": "address",
					"name": "w2",
					"type": "address"
				},
				{
					"internalType": "uint256",
					"name": "stake",
					"type": "uint256"
				}
			],
			"name": "gameEnd4players",
			"outputs": [],
			"stateMutability": "nonpayable",
			"type": "function"
		},
		{
			"inputs": [
				{
					"internalType": "address",
					"name": "_account",
					"type": "address"
				}
			],
			"name": "getBalance",
			"outputs": [
				{
					"internalType": "uint256",
					"name": "",
					"type": "uint256"
				}
			],
			"stateMutability": "view",
			"type": "function"
		},
		{
			"inputs": [],
			"name": "name",
			"outputs": [
				{
					"internalType": "string",
					"name": "",
					"type": "string"
				}
			],
			"stateMutability": "view",
			"type": "function"
		},
		{
			"inputs": [
				{
					"internalType": "address",
					"name": "_account",
					"type": "address"
				}
			],
			"name": "newAccount",
			"outputs": [],
			"stateMutability": "nonpayable",
			"type": "function"
		},
		{
			"inputs": [
				{
					"internalType": "address",
					"name": "_p1",
					"type": "address"
				},
				{
					"internalType": "address",
					"name": "_p2",
					"type": "address"
				},
				{
					"internalType": "uint256",
					"name": "stakeAmount",
					"type": "uint256"
				}
			],
			"name": "no2Players",
			"outputs": [],
			"stateMutability": "nonpayable",
			"type": "function"
		},
		{
			"inputs": [
				{
					"internalType": "address",
					"name": "_p1",
					"type": "address"
				},
				{
					"internalType": "address",
					"name": "_p2",
					"type": "address"
				},
				{
					"internalType": "address",
					"name": "_p3",
					"type": "address"
				},
				{
					"internalType": "address",
					"name": "_p4",
					"type": "address"
				},
				{
					"internalType": "uint256",
					"name": "stakeAmount",
					"type": "uint256"
				}
			],
			"name": "no4Players",
			"outputs": [],
			"stateMutability": "nonpayable",
			"type": "function"
		},
		{
			"inputs": [
				{
					"internalType": "address",
					"name": "_from",
					"type": "address"
				},
				{
					"internalType": "uint256",
					"name": "stakeAmount",
					"type": "uint256"
				}
			],
			"name": "startGame",
			"outputs": [
				{
					"internalType": "uint256",
					"name": "",
					"type": "uint256"
				}
			],
			"stateMutability": "nonpayable",
			"type": "function"
		},
		{
			"inputs": [],
			"name": "symbol",
			"outputs": [
				{
					"internalType": "string",
					"name": "",
					"type": "string"
				}
			],
			"stateMutability": "view",
			"type": "function"
		},
		{
			"inputs": [
				{
					"internalType": "address",
					"name": "_to",
					"type": "address"
				},
				{
					"internalType": "uint256",
					"name": "value",
					"type": "uint256"
				}
			],
			"name": "transfer",
			"outputs": [
				{
					"internalType": "bool",
					"name": "",
					"type": "bool"
				}
			],
			"stateMutability": "nonpayable",
			"type": "function"
		},
		{
			"inputs": [
				{
					"internalType": "address",
					"name": "_from",
					"type": "address"
				},
				{
					"internalType": "address",
					"name": "_to",
					"type": "address"
				},
				{
					"internalType": "uint256",
					"name": "value",
					"type": "uint256"
				}
			],
			"name": "transferFrom",
			"outputs": [
				{
					"internalType": "bool",
					"name": "",
					"type": "bool"
				}
			],
			"stateMutability": "nonpayable",
			"type": "function"
		}
	],
	"bytecode": "0x60c060405260046080819052634c55444f60e01b60a090815262000027916000919062000092565b5060408051808201909152600280825261131160f21b6020909201918252620000539160019162000092565b503480156200006157600080fd5b50620f4240600255336000908152600660205260409020620186a0905562061a806003556207a12060045562000175565b828054620000a09062000138565b90600052602060002090601f016020900481019282620000c457600085556200010f565b82601f10620000df57805160ff19168380011785556200010f565b828001600101855582156200010f579182015b828111156200010f578251825591602001919060010190620000f2565b506200011d92915062000121565b5090565b5b808211156200011d576000815560010162000122565b600181811c908216806200014d57607f821691505b602082108114156200016f57634e487b7160e01b600052602260045260246000fd5b50919050565b61101f80620001856000396000f3fe608060405234801561001057600080fd5b50600436106100b45760003560e01c8063a9059cbb11610071578063a9059cbb1461013d578063bb3bcbf414610150578063bf23ef7414610163578063d2c148fb14610176578063f399c7e614610189578063f8b2cb4f146101aa57600080fd5b806303152429146100b957806306fdde03146100ce57806323b872dd146100ec57806371c8edbb1461010f5780639440f01f1461012257806395d89b4114610135575b600080fd5b6100cc6100c7366004610e36565b6101d3565b005b6100d6610285565b6040516100e39190610f16565b60405180910390f35b6100ff6100fa366004610eb2565b610313565b60405190151581526020016100e3565b6100cc61011d366004610eed565b6103df565b6100cc610130366004610eed565b6106e6565b6100d6610745565b6100ff61014b366004610eed565b610752565b6100cc61015e366004610eb2565b61080b565b6100cc610171366004610e57565b610c2f565b6100cc610184366004610eb2565b610cef565b61019c610197366004610eed565b610d44565b6040519081526020016100e3565b61019c6101b8366004610e36565b6001600160a01b031660009081526006602052604090205490565b6064600254101561021e5760405162461bcd60e51b815260206004820152601060248201526f6e6f7420656e6f75676820636f696e7360801b60448201526064015b60405180910390fd5b6001600160a01b0381166000908152600660205260409020546102825760646002600082825461024e9190610f81565b90915550506001600160a01b038116600090815260066020526040812080546064929061027c908490610f69565b90915550505b50565b6000805461029290610f98565b80601f01602080910402602001604051908101604052809291908181526020018280546102be90610f98565b801561030b5780601f106102e05761010080835404028352916020019161030b565b820191906000526020600020905b8154815290600101906020018083116102ee57829003601f168201915b505050505081565b6001600160a01b03831660009081526006602052604081205482111561037b5760405162461bcd60e51b815260206004820152601d60248201527f6e6f7420656e6f75676820746f6b656e7320746f207472616e736665720000006044820152606401610215565b6001600160a01b038416600090815260066020526040812080548492906103a3908490610f81565b90915550506001600160a01b038316600090815260066020526040812080548492906103d0908490610f69565b90915550600195945050505050565b8060321415610469576001600160a01b03821660009081526006602052604081208054605a9290610411908490610f69565b92505081905550600a6002600082825461042b9190610f69565b909155505060035460009061044290605a90610f81565b1061046057605a6003600082825461045a9190610f81565b90915550505b60006005555050565b80606414156104e4576001600160a01b0382166000908152600660205260408120805460be929061049b908490610f69565b92505081905550600a600260008282546104b59190610f69565b90915550506003546000906104cc9060be90610f81565b106104605760be6003600082825461045a9190610f81565b806101f41415610563576001600160a01b038216600090815260066020526040812080546103849290610518908490610f69565b925050819055506064600260008282546105329190610f69565b909155505060035460009061054a9061038490610f81565b10610460576103846003600082825461045a9190610f81565b806103e814156105e2576001600160a01b0382166000908152600660205260408120805461076c9290610597908490610f69565b925050819055506064600260008282546105b19190610f69565b90915550506003546000906105c99061076c90610f81565b106104605761076c6003600082825461045a9190610f81565b806113881415610662576001600160a01b038216600090815260066020526040812080546123289290610616908490610f69565b925050819055506103e8600260008282546106319190610f69565b90915550506003546000906106499061232890610f81565b10610460576123286003600082825461045a9190610f81565b8061271014156106e2576001600160a01b03821660009081526006602052604081208054614a389290610696908490610f69565b925050819055506103e8600260008282546106b19190610f69565b90915550506003546000906106c990614a3890610f81565b1061046057614a386003600082825461045a9190610f81565b5050565b6000816002546106f69190610f81565b106106e2576001600160a01b03821660009081526006602052604081208054839290610723908490610f69565b92505081905550806002600082825461073c9190610f81565b90915550505050565b6001805461029290610f98565b336000908152600660205260408120548211156107b15760405162461bcd60e51b815260206004820152601d60248201527f6e6f7420656e6f75676820746f6b656e7320746f207472616e736665720000006044820152606401610215565b33600090815260066020526040812080548492906107d0908490610f81565b90915550506001600160a01b038316600090815260066020526040812080548492906107fd908490610f69565b909155506001949350505050565b80603214156108c4576001600160a01b03831660009081526006602052604081208054608c929061083d908490610f69565b90915550506001600160a01b038216600090815260066020526040812080546032929061086b908490610f69565b92505081905550600a600260008282546108859190610f69565b909155505060035460009061089c9060be90610f81565b106108ba5760be600360008282546108b49190610f81565b90915550505b6000600555505050565b8060641415610970576001600160a01b0383166000908152600660205260408120805461012292906108f7908490610f69565b90915550506001600160a01b0382166000908152600660205260408120805460649290610925908490610f69565b92505081905550600a6002600082825461093f9190610f69565b90915550506003546000906109579061018690610f81565b106108ba57610186600360008282546108b49190610f81565b806101f41415610a1d576001600160a01b0383166000908152600660205260408120805461015e92906109a4908490610f69565b90915550506001600160a01b03821660009081526006602052604081208054606492906109d2908490610f69565b925050819055506032600260008282546109ec9190610f69565b9091555050600354600090610a04906101c290610f81565b106108ba576101c2600360008282546108b49190610f81565b806103e81415610acc576001600160a01b038316600090815260066020526040812080546109c49290610a51908490610f69565b90915550506001600160a01b038216600090815260066020526040812080546103e89290610a80908490610f69565b925050819055506101f460026000828254610a9b9190610f69565b9091555050600354600090610ab390610dac90610f81565b106108ba57610dac600360008282546108b49190610f81565b806113881415610b7b576001600160a01b038316600090815260066020526040812080546136b09290610b00908490610f69565b90915550506001600160a01b038216600090815260066020526040812080546113889290610b2f908490610f69565b925050819055506103e860026000828254610b4a9190610f69565b9091555050600354600090610b6290614a3890610f81565b106108ba57614a38600360008282546108b49190610f81565b806127101415610c2a576001600160a01b038316600090815260066020526040812080546161a89290610baf908490610f69565b90915550506001600160a01b038216600090815260066020526040812080546127109290610bde908490610f69565b9250508190555061138860026000828254610bf99190610f69565b9091555050600354600090610c11906188b890610f81565b106108ba576188b8600360008282546108b49190610f81565b505050565b6001600160a01b03851660009081526006602052604081208054839290610c57908490610f69565b90915550506001600160a01b03841660009081526006602052604081208054839290610c84908490610f69565b90915550506001600160a01b03831660009081526006602052604081208054839290610cb1908490610f69565b90915550506001600160a01b03821660009081526006602052604081208054839290610cde908490610f69565b909155505060006005555050505050565b6001600160a01b03831660009081526006602052604081208054839290610d17908490610f69565b90915550506001600160a01b038216600090815260066020526040812080548392906108b4908490610f69565b6001600160a01b038216600090815260066020526040812054821115610db75760405162461bcd60e51b815260206004820152602260248201527f6e6f7420656e6f75676820636f696e7320746f207374617274207468652067616044820152616d6560f01b6064820152608401610215565b6001600160a01b03831660009081526006602052604081208054849290610ddf908490610f81565b925050819055508160056000828254610df89190610f69565b909155505050506001600160a01b031660009081526006602052604090205490565b80356001600160a01b0381168114610e3157600080fd5b919050565b600060208284031215610e47578081fd5b610e5082610e1a565b9392505050565b600080600080600060a08688031215610e6e578081fd5b610e7786610e1a565b9450610e8560208701610e1a565b9350610e9360408701610e1a565b9250610ea160608701610e1a565b949793965091946080013592915050565b600080600060608486031215610ec6578283fd5b610ecf84610e1a565b9250610edd60208501610e1a565b9150604084013590509250925092565b60008060408385031215610eff578182fd5b610f0883610e1a565b946020939093013593505050565b6000602080835283518082850152825b81811015610f4257858101830151858201604001528201610f26565b81811115610f535783604083870101525b50601f01601f1916929092016040019392505050565b60008219821115610f7c57610f7c610fd3565b500190565b600082821015610f9357610f93610fd3565b500390565b600181811c90821680610fac57607f821691505b60208210811415610fcd57634e487b7160e01b600052602260045260246000fd5b50919050565b634e487b7160e01b600052601160045260246000fdfea2646970667358221220d06aa5df87ba7eca19f27ec00df7b15efee183c257c8d37773166126b610b8ce64736f6c63430008040033",
	"linkReferences": {},
	"deployedLinkReferences": {}
}